{
  "contractName": "Factory",
  "abi": [
    {
      "anonymous": false,
      "inputs": [
        {
          "indexed": true,
          "internalType": "address",
          "name": "previousOwner",
          "type": "address"
        },
        {
          "indexed": true,
          "internalType": "address",
          "name": "newOwner",
          "type": "address"
        }
      ],
      "name": "OwnershipTransferred",
      "type": "event"
    },
    {
      "anonymous": false,
      "inputs": [
        {
          "indexed": true,
          "internalType": "string",
          "name": "_slp",
          "type": "string"
        },
        {
          "indexed": true,
          "internalType": "address",
          "name": "_erc20",
          "type": "address"
        }
      ],
      "name": "WslpCreated",
      "type": "event"
    },
    {
      "inputs": [
        {
          "internalType": "uint256",
          "name": "",
          "type": "uint256"
        }
      ],
      "name": "allSlp",
      "outputs": [
        {
          "internalType": "string",
          "name": "",
          "type": "string"
        }
      ],
      "stateMutability": "view",
      "type": "function",
      "constant": true
    },
    {
      "inputs": [
        {
          "internalType": "uint256",
          "name": "",
          "type": "uint256"
        }
      ],
      "name": "allTokens",
      "outputs": [
        {
          "internalType": "address",
          "name": "",
          "type": "address"
        }
      ],
      "stateMutability": "view",
      "type": "function",
      "constant": true
    },
    {
      "inputs": [
        {
          "internalType": "string",
          "name": "",
          "type": "string"
        }
      ],
      "name": "getErc20",
      "outputs": [
        {
          "internalType": "address",
          "name": "",
          "type": "address"
        }
      ],
      "stateMutability": "view",
      "type": "function",
      "constant": true
    },
    {
      "inputs": [],
      "name": "owner",
      "outputs": [
        {
          "internalType": "address",
          "name": "",
          "type": "address"
        }
      ],
      "stateMutability": "view",
      "type": "function",
      "constant": true
    },
    {
      "inputs": [],
      "name": "renounceOwnership",
      "outputs": [],
      "stateMutability": "nonpayable",
      "type": "function"
    },
    {
      "inputs": [
        {
          "internalType": "address",
          "name": "newOwner",
          "type": "address"
        }
      ],
      "name": "transferOwnership",
      "outputs": [],
      "stateMutability": "nonpayable",
      "type": "function"
    },
    {
      "inputs": [],
      "name": "allPairsLength",
      "outputs": [
        {
          "internalType": "uint256",
          "name": "",
          "type": "uint256"
        }
      ],
      "stateMutability": "view",
      "type": "function",
      "constant": true
    },
    {
      "inputs": [
        {
          "internalType": "string",
          "name": "_slp",
          "type": "string"
        },
        {
          "internalType": "string",
          "name": "_symbol",
          "type": "string"
        },
        {
          "internalType": "string",
          "name": "_name",
          "type": "string"
        },
        {
          "internalType": "uint8",
          "name": "_decimals",
          "type": "uint8"
        }
      ],
      "name": "createWslp",
      "outputs": [
        {
          "internalType": "address",
          "name": "_erc20",
          "type": "address"
        }
      ],
      "stateMutability": "nonpayable",
      "type": "function"
    }
  ],
  "bytecode": "0x608060405234801561001057600080fd5b5060006100216100c460201b60201c565b9050806000806101000a81548173ffffffffffffffffffffffffffffffffffffffff021916908373ffffffffffffffffffffffffffffffffffffffff1602179055508073ffffffffffffffffffffffffffffffffffffffff16600073ffffffffffffffffffffffffffffffffffffffff167f8be0079c531659141344cd1fd0a4f28419497f9722a3daafe3b4186f6b6457e060405160405180910390a3506100cc565b600033905090565b614131806100db6000396000f3fe60806040523480156200001157600080fd5b5060043610620000945760003560e01c8063715018a61162000063578063715018a6146200042b5780638da5cb5b1462000437578063c02527ea146200046d578063f2fde38b146200051a5762000094565b80630498a96b14620000995780633680f11b1462000184578063574f2ba314620003b0578063634282af14620003d0575b600080fd5b6200015860048036036020811015620000b157600080fd5b8101908080359060200190640100000000811115620000cf57600080fd5b820183602082011115620000e257600080fd5b803590602001918460018302840111640100000000831117156200010557600080fd5b91908080601f016020809104026020016040519081016040528093929190818152602001838380828437600081840152601f19601f82011690508083019250505050505050919291929050505062000561565b604051808273ffffffffffffffffffffffffffffffffffffffff16815260200191505060405180910390f35b62000384600480360360808110156200019c57600080fd5b8101908080359060200190640100000000811115620001ba57600080fd5b820183602082011115620001cd57600080fd5b80359060200191846001830284011164010000000083111715620001f057600080fd5b91908080601f016020809104026020016040519081016040528093929190818152602001838380828437600081840152601f19601f820116905080830192505050505050509192919290803590602001906401000000008111156200025457600080fd5b8201836020820111156200026757600080fd5b803590602001918460018302840111640100000000831117156200028a57600080fd5b91908080601f016020809104026020016040519081016040528093929190818152602001838380828437600081840152601f19601f82011690508083019250505050505050919291929080359060200190640100000000811115620002ee57600080fd5b8201836020820111156200030157600080fd5b803590602001918460018302840111640100000000831117156200032457600080fd5b91908080601f016020809104026020016040519081016040528093929190818152602001838380828437600081840152601f19601f820116905080830192505050505050509192919290803560ff169060200190929190505050620005aa565b604051808273ffffffffffffffffffffffffffffffffffffffff16815260200191505060405180910390f35b620003ba62000af0565b6040518082815260200191505060405180910390f35b620003ff60048036036020811015620003e857600080fd5b810190808035906020019092919050505062000afd565b604051808273ffffffffffffffffffffffffffffffffffffffff16815260200191505060405180910390f35b6200043562000b3a565b005b6200044162000cc3565b604051808273ffffffffffffffffffffffffffffffffffffffff16815260200191505060405180910390f35b6200049c600480360360208110156200048557600080fd5b810190808035906020019092919050505062000cec565b6040518080602001828103825283818151815260200191508051906020019080838360005b83811015620004de578082015181840152602081019050620004c1565b50505050905090810190601f1680156200050c5780820380516001836020036101000a031916815260200191505b509250505060405180910390f35b6200055f600480360360208110156200053257600080fd5b81019080803573ffffffffffffffffffffffffffffffffffffffff16906020019092919050505062000daa565b005b6001818051602081018201805184825260208301602085012081835280955050505050506000915054906101000a900473ffffffffffffffffffffffffffffffffffffffff1681565b60008073ffffffffffffffffffffffffffffffffffffffff166001866040518082805190602001908083835b60208310620005fb5780518252602082019150602081019050602083039250620005d6565b6001836020036101000a038019825116818451168082178552505050505050905001915050908152602001604051809103902060009054906101000a900473ffffffffffffffffffffffffffffffffffffffff1673ffffffffffffffffffffffffffffffffffffffff1614620006d9576040517f08c379a00000000000000000000000000000000000000000000000000000000081526004018080602001828103825260148152602001807f466163746f72793a20657263323020657869737400000000000000000000000081525060200191505060405180910390fd5b600085858585604051620006ed9062000fc2565b808060200180602001806020018560ff168152602001848103845288818151815260200191508051906020019080838360005b838110156200073d57808201518184015260208101905062000720565b50505050905090810190601f1680156200076b5780820380516001836020036101000a031916815260200191505b50848103835287818151815260200191508051906020019080838360005b83811015620007a657808201518184015260208101905062000789565b50505050905090810190601f168015620007d45780820380516001836020036101000a031916815260200191505b50848103825286818151815260200191508051906020019080838360005b838110156200080f578082015181840152602081019050620007f2565b50505050905090810190601f1680156200083d5780820380516001836020036101000a031916815260200191505b50975050505050505050604051809103906000f08015801562000864573d6000803e3d6000fd5b5090508073ffffffffffffffffffffffffffffffffffffffff1663f2fde38b6200088d62000cc3565b6040518263ffffffff1660e01b8152600401808273ffffffffffffffffffffffffffffffffffffffff168152602001915050600060405180830381600087803b158015620008da57600080fd5b505af1158015620008ef573d6000803e3d6000fd5b50505050809150816001876040518082805190602001908083835b602083106200092f57805182526020820191506020810190506020830392506200090a565b6001836020036101000a038019825116818451168082178552505050505050905001915050908152602001604051809103902060006101000a81548173ffffffffffffffffffffffffffffffffffffffff021916908373ffffffffffffffffffffffffffffffffffffffff1602179055506002829080600181540180825580915050600190039060005260206000200160009091909190916101000a81548173ffffffffffffffffffffffffffffffffffffffff021916908373ffffffffffffffffffffffffffffffffffffffff16021790555060038690806001815401808255809150506001900390600052602060002001600090919091909150908051906020019062000a4092919062000fd0565b508173ffffffffffffffffffffffffffffffffffffffff16866040518082805190602001908083835b6020831062000a8e578051825260208201915060208101905060208303925062000a69565b6001836020036101000a03801982511681845116808217855250505050505090500191505060405180910390207f8bce04e2397ad42b51838399744ccd9e76fe0ba40554a6e2912bf72a286789db60405160405180910390a350949350505050565b6000600380549050905090565b6002818154811062000b0b57fe5b906000526020600020016000915054906101000a900473ffffffffffffffffffffffffffffffffffffffff1681565b62000b4462000fba565b73ffffffffffffffffffffffffffffffffffffffff1660008054906101000a900473ffffffffffffffffffffffffffffffffffffffff1673ffffffffffffffffffffffffffffffffffffffff161462000c05576040517f08c379a00000000000000000000000000000000000000000000000000000000081526004018080602001828103825260208152602001807f4f776e61626c653a2063616c6c6572206973206e6f7420746865206f776e657281525060200191505060405180910390fd5b600073ffffffffffffffffffffffffffffffffffffffff1660008054906101000a900473ffffffffffffffffffffffffffffffffffffffff1673ffffffffffffffffffffffffffffffffffffffff167f8be0079c531659141344cd1fd0a4f28419497f9722a3daafe3b4186f6b6457e060405160405180910390a360008060006101000a81548173ffffffffffffffffffffffffffffffffffffffff021916908373ffffffffffffffffffffffffffffffffffffffff160217905550565b60008060009054906101000a900473ffffffffffffffffffffffffffffffffffffffff16905090565b6003818154811062000cfa57fe5b906000526020600020016000915090508054600181600116156101000203166002900480601f01602080910402602001604051908101604052809291908181526020018280546001816001161561010002031660029004801562000da25780601f1062000d765761010080835404028352916020019162000da2565b820191906000526020600020905b81548152906001019060200180831162000d8457829003601f168201915b505050505081565b62000db462000fba565b73ffffffffffffffffffffffffffffffffffffffff1660008054906101000a900473ffffffffffffffffffffffffffffffffffffffff1673ffffffffffffffffffffffffffffffffffffffff161462000e75576040517f08c379a00000000000000000000000000000000000000000000000000000000081526004018080602001828103825260208152602001807f4f776e61626c653a2063616c6c6572206973206e6f7420746865206f776e657281525060200191505060405180910390fd5b600073ffffffffffffffffffffffffffffffffffffffff168173ffffffffffffffffffffffffffffffffffffffff16141562000efd576040517f08c379a0000000000000000000000000000000000000000000000000000000008152600401808060200182810382526026815260200180620040d66026913960400191505060405180910390fd5b8073ffffffffffffffffffffffffffffffffffffffff1660008054906101000a900473ffffffffffffffffffffffffffffffffffffffff1673ffffffffffffffffffffffffffffffffffffffff167f8be0079c531659141344cd1fd0a4f28419497f9722a3daafe3b4186f6b6457e060405160405180910390a3806000806101000a81548173ffffffffffffffffffffffffffffffffffffffff021916908373ffffffffffffffffffffffffffffffffffffffff16021790555050565b600033905090565b61305f806200107783390190565b828054600181600116156101000203166002900490600052602060002090601f016020900481019282601f106200101357805160ff191683800117855562001044565b8280016001018555821562001044579182015b828111156200104357825182559160200191906001019062001026565b5b50905062001053919062001057565b5090565b5b808211156200107257600081600090555060010162001058565b509056fe60806040526312e337ee6007553480156200001957600080fd5b506040516200305f3803806200305f833981810160405260808110156200003f57600080fd5b81019080805160405193929190846401000000008211156200006057600080fd5b838201915060208201858111156200007757600080fd5b82518660018202830111640100000000821117156200009557600080fd5b8083526020830192505050908051906020019080838360005b83811015620000cb578082015181840152602081019050620000ae565b50505050905090810190601f168015620000f95780820380516001836020036101000a031916815260200191505b50604052602001805160405193929190846401000000008211156200011d57600080fd5b838201915060208201858111156200013457600080fd5b82518660018202830111640100000000821117156200015257600080fd5b8083526020830192505050908051906020019080838360005b83811015620001885780820151818401526020810190506200016b565b50505050905090810190601f168015620001b65780820380516001836020036101000a031916815260200191505b5060405260200180516040519392919084640100000000821115620001da57600080fd5b83820191506020820185811115620001f157600080fd5b82518660018202830111640100000000821117156200020f57600080fd5b8083526020830192505050908051906020019080838360005b838110156200024557808201518184015260208101905062000228565b50505050905090810190601f168015620002735780820380516001836020036101000a031916815260200191505b506040526020018051906020019092919050505081838160039080519060200190620002a1929190620003e4565b508060049080519060200190620002ba929190620003e4565b506012600560006101000a81548160ff021916908360ff16021790555050506000620002eb620003be60201b60201c565b905080600560016101000a81548173ffffffffffffffffffffffffffffffffffffffff021916908373ffffffffffffffffffffffffffffffffffffffff1602179055508073ffffffffffffffffffffffffffffffffffffffff16600073ffffffffffffffffffffffffffffffffffffffff167f8be0079c531659141344cd1fd0a4f28419497f9722a3daafe3b4186f6b6457e060405160405180910390a3508360069080519060200190620003a2929190620003e4565b50620003b481620003c660201b60201c565b505050506200048a565b600033905090565b80600560006101000a81548160ff021916908360ff16021790555050565b828054600181600116156101000203166002900490600052602060002090601f016020900481019282601f106200042757805160ff191683800117855562000458565b8280016001018555821562000458579182015b82811115620004575782518255916020019190600101906200043a565b5b5090506200046791906200046b565b5090565b5b80821115620004865760008160009055506001016200046c565b5090565b612bc5806200049a6000396000f3fe608060405234801561001057600080fd5b506004361061014d5760003560e01c80638da5cb5b116100c3578063dc048cf21161007c578063dc048cf214610767578063dd62ed3e1461082c578063e683a2d4146108a4578063e86374f0146108d2578063f2fde38b14610920578063fc074e54146109645761014d565b80638da5cb5b1461049d57806395d89b41146104d1578063a457c2d714610554578063a87430ba146105b8578063a9059cbb1461061e578063bfe07da6146106825761014d565b8063313ce56711610115578063313ce56714610329578063395093511461034a5780633ebf3338146103ae57806340f6ac311461043157806370a082311461043b578063715018a6146104935761014d565b806306fdde0314610152578063095ea7b3146101d5578063170ba3cc1461023957806318160ddd1461028757806323b872dd146102a5575b600080fd5b61015a610982565b6040518080602001828103825283818151815260200191508051906020019080838360005b8381101561019a57808201518184015260208101905061017f565b50505050905090810190601f1680156101c75780820380516001836020036101000a031916815260200191505b509250505060405180910390f35b610221600480360360408110156101eb57600080fd5b81019080803573ffffffffffffffffffffffffffffffffffffffff16906020019092919080359060200190929190505050610a24565b60405180821515815260200191505060405180910390f35b6102856004803603604081101561024f57600080fd5b81019080803573ffffffffffffffffffffffffffffffffffffffff16906020019092919080359060200190929190505050610a42565b005b61028f610c77565b6040518082815260200191505060405180910390f35b610311600480360360608110156102bb57600080fd5b81019080803573ffffffffffffffffffffffffffffffffffffffff169060200190929190803573ffffffffffffffffffffffffffffffffffffffff16906020019092919080359060200190929190505050610c81565b60405180821515815260200191505060405180910390f35b610331610d5a565b604051808260ff16815260200191505060405180910390f35b6103966004803603604081101561036057600080fd5b81019080803573ffffffffffffffffffffffffffffffffffffffff16906020019092919080359060200190929190505050610d71565b60405180821515815260200191505060405180910390f35b6103b6610e24565b6040518080602001828103825283818151815260200191508051906020019080838360005b838110156103f65780820151818401526020810190506103db565b50505050905090810190601f1680156104235780820380516001836020036101000a031916815260200191505b509250505060405180910390f35b610439610ec2565b005b61047d6004803603602081101561045157600080fd5b81019080803573ffffffffffffffffffffffffffffffffffffffff169060200190929190505050610fdd565b6040518082815260200191505060405180910390f35b61049b611025565b005b6104a56111b0565b604051808273ffffffffffffffffffffffffffffffffffffffff16815260200191505060405180910390f35b6104d96111da565b6040518080602001828103825283818151815260200191508051906020019080838360005b838110156105195780820151818401526020810190506104fe565b50505050905090810190601f1680156105465780820380516001836020036101000a031916815260200191505b509250505060405180910390f35b6105a06004803603604081101561056a57600080fd5b81019080803573ffffffffffffffffffffffffffffffffffffffff1690602001909291908035906020019092919050505061127c565b60405180821515815260200191505060405180910390f35b6105fa600480360360208110156105ce57600080fd5b81019080803573ffffffffffffffffffffffffffffffffffffffff169060200190929190505050611349565b60405180848152602001838152602001828152602001935050505060405180910390f35b61066a6004803603604081101561063457600080fd5b81019080803573ffffffffffffffffffffffffffffffffffffffff16906020019092919080359060200190929190505050611373565b60405180821515815260200191505060405180910390f35b6107656004803603606081101561069857600080fd5b81019080803573ffffffffffffffffffffffffffffffffffffffff16906020019092919080359060200190929190803590602001906401000000008111156106df57600080fd5b8201836020820111156106f157600080fd5b8035906020019184600183028401116401000000008311171561071357600080fd5b91908080601f016020809104026020016040519081016040528093929190818152602001838380828437600081840152601f19601f820116905080830192505050505050509192919290505050611391565b005b61082a6004803603604081101561077d57600080fd5b8101908080359060200190929190803590602001906401000000008111156107a457600080fd5b8201836020820111156107b657600080fd5b803590602001918460018302840111640100000000831117156107d857600080fd5b91908080601f016020809104026020016040519081016040528093929190818152602001838380828437600081840152601f19601f820116905080830192505050505050509192919290505050611519565b005b61088e6004803603604081101561084257600080fd5b81019080803573ffffffffffffffffffffffffffffffffffffffff169060200190929190803573ffffffffffffffffffffffffffffffffffffffff16906020019092919050505061168e565b6040518082815260200191505060405180910390f35b6108d0600480360360208110156108ba57600080fd5b8101908080359060200190929190505050611715565b005b61091e600480360360408110156108e857600080fd5b81019080803573ffffffffffffffffffffffffffffffffffffffff16906020019092919080359060200190929190505050611926565b005b6109626004803603602081101561093657600080fd5b81019080803573ffffffffffffffffffffffffffffffffffffffff169060200190929190505050611c17565b005b61096c611e27565b6040518082815260200191505060405180910390f35b606060038054600181600116156101000203166002900480601f016020809104026020016040519081016040528092919081815260200182805460018160011615610100020316600290048015610a1a5780601f106109ef57610100808354040283529160200191610a1a565b820191906000526020600020905b8154815290600101906020018083116109fd57829003601f168201915b5050505050905090565b6000610a38610a31611e2d565b8484611e35565b6001905092915050565b610a4a611e2d565b73ffffffffffffffffffffffffffffffffffffffff16600560019054906101000a900473ffffffffffffffffffffffffffffffffffffffff1673ffffffffffffffffffffffffffffffffffffffff1614610b0c576040517f08c379a00000000000000000000000000000000000000000000000000000000081526004018080602001828103825260208152602001807f4f776e61626c653a2063616c6c6572206973206e6f7420746865206f776e657281525060200191505060405180910390fd5b60016003811115610b1957fe5b600860008473ffffffffffffffffffffffffffffffffffffffff1673ffffffffffffffffffffffffffffffffffffffff168152602001908152602001600020600301600083815260200190815260200160002060010160009054906101000a900460ff166003811115610b8857fe5b14610bfb576040517f08c379a00000000000000000000000000000000000000000000000000000000081526004018080602001828103825260208152602001807f57726170706564534c503a2077726f6e6720726571756573742073746174757381525060200191505060405180910390fd5b6002600860008473ffffffffffffffffffffffffffffffffffffffff1673ffffffffffffffffffffffffffffffffffffffff168152602001908152602001600020600301600083815260200190815260200160002060010160006101000a81548160ff02191690836003811115610c6e57fe5b02179055505050565b6000600254905090565b6000610c8e84848461202c565b610d4f84610c9a611e2d565b610d4a85604051806060016040528060288152602001612ad960289139600160008b73ffffffffffffffffffffffffffffffffffffffff1673ffffffffffffffffffffffffffffffffffffffff1681526020019081526020016000206000610d00611e2d565b73ffffffffffffffffffffffffffffffffffffffff1673ffffffffffffffffffffffffffffffffffffffff1681526020019081526020016000205461212c9092919063ffffffff16565b611e35565b600190509392505050565b6000600560009054906101000a900460ff16905090565b6000610e1a610d7e611e2d565b84610e158560016000610d8f611e2d565b73ffffffffffffffffffffffffffffffffffffffff1673ffffffffffffffffffffffffffffffffffffffff16815260200190815260200160002060008973ffffffffffffffffffffffffffffffffffffffff1673ffffffffffffffffffffffffffffffffffffffff168152602001908152602001600020546121ec90919063ffffffff16565b611e35565b6001905092915050565b60068054600181600116156101000203166002900480601f016020809104026020016040519081016040528092919081815260200182805460018160011615610100020316600290048015610eba5780601f10610e8f57610100808354040283529160200191610eba565b820191906000526020600020905b815481529060010190602001808311610e9d57829003601f168201915b505050505081565b610eca611e2d565b73ffffffffffffffffffffffffffffffffffffffff16600560019054906101000a900473ffffffffffffffffffffffffffffffffffffffff1673ffffffffffffffffffffffffffffffffffffffff1614610f8c576040517f08c379a00000000000000000000000000000000000000000000000000000000081526004018080602001828103825260208152602001807f4f776e61626c653a2063616c6c6572206973206e6f7420746865206f776e657281525060200191505060405180910390fd5b6000610f9730610fdd565b9050610fa33082612274565b7f9a9167e71c6d7a86507b4ab0611cdad6487558a4d9c54b310caba1d6a66d5837816040518082815260200191505060405180910390a150565b60008060008373ffffffffffffffffffffffffffffffffffffffff1673ffffffffffffffffffffffffffffffffffffffff168152602001908152602001600020549050919050565b61102d611e2d565b73ffffffffffffffffffffffffffffffffffffffff16600560019054906101000a900473ffffffffffffffffffffffffffffffffffffffff1673ffffffffffffffffffffffffffffffffffffffff16146110ef576040517f08c379a00000000000000000000000000000000000000000000000000000000081526004018080602001828103825260208152602001807f4f776e61626c653a2063616c6c6572206973206e6f7420746865206f776e657281525060200191505060405180910390fd5b600073ffffffffffffffffffffffffffffffffffffffff16600560019054906101000a900473ffffffffffffffffffffffffffffffffffffffff1673ffffffffffffffffffffffffffffffffffffffff167f8be0079c531659141344cd1fd0a4f28419497f9722a3daafe3b4186f6b6457e060405160405180910390a36000600560016101000a81548173ffffffffffffffffffffffffffffffffffffffff021916908373ffffffffffffffffffffffffffffffffffffffff160217905550565b6000600560019054906101000a900473ffffffffffffffffffffffffffffffffffffffff16905090565b606060048054600181600116156101000203166002900480601f0160208091040260200160405190810160405280929190818152602001828054600181600116156101000203166002900480156112725780601f1061124757610100808354040283529160200191611272565b820191906000526020600020905b81548152906001019060200180831161125557829003601f168201915b5050505050905090565b600061133f611289611e2d565b8461133a85604051806060016040528060258152602001612b6b60259139600160006112b3611e2d565b73ffffffffffffffffffffffffffffffffffffffff1673ffffffffffffffffffffffffffffffffffffffff16815260200190815260200160002060008a73ffffffffffffffffffffffffffffffffffffffff1673ffffffffffffffffffffffffffffffffffffffff1681526020019081526020016000205461212c9092919063ffffffff16565b611e35565b6001905092915050565b60086020528060005260406000206000915090508060000154908060010154908060020154905083565b6000611387611380611e2d565b848461202c565b6001905092915050565b611399611e2d565b73ffffffffffffffffffffffffffffffffffffffff16600560019054906101000a900473ffffffffffffffffffffffffffffffffffffffff1673ffffffffffffffffffffffffffffffffffffffff161461145b576040517f08c379a00000000000000000000000000000000000000000000000000000000081526004018080602001828103825260208152602001807f4f776e61626c653a2063616c6c6572206973206e6f7420746865206f776e657281525060200191505060405180910390fd5b6114658383612438565b806040518082805190602001908083835b602083106114995780518252602082019150602081019050602083039250611476565b6001836020036101000a03801982511681845116808217855250505050505090500191505060405180910390208373ffffffffffffffffffffffffffffffffffffffff167f12d25b343f58fb56af4dd5734945b7fa42ac63d8c607b8a8040f26d8c1315a77846040518082815260200191505060405180910390a3505050565b6000611523611e2d565b905061152f8184612274565b82600860008373ffffffffffffffffffffffffffffffffffffffff1673ffffffffffffffffffffffffffffffffffffffff1681526020019081526020016000206003016000600860008573ffffffffffffffffffffffffffffffffffffffff1673ffffffffffffffffffffffffffffffffffffffff168152602001908152602001600020600001600081548092919060010191905055815260200190815260200160002060000181905550816040518082805190602001908083835b6020831061160e57805182526020820191506020810190506020830392506115eb565b6001836020036101000a03801982511681845116808217855250505050505090500191505060405180910390208173ffffffffffffffffffffffffffffffffffffffff167f910991089c08806054f4db6af9c19b214b33254f055366f331d834ba3a4fb6bb856040518082815260200191505060405180910390a3505050565b6000600160008473ffffffffffffffffffffffffffffffffffffffff1673ffffffffffffffffffffffffffffffffffffffff16815260200190815260200160002060008373ffffffffffffffffffffffffffffffffffffffff1673ffffffffffffffffffffffffffffffffffffffff16815260200190815260200160002054905092915050565b600061171f611e2d565b905081600860008373ffffffffffffffffffffffffffffffffffffffff1673ffffffffffffffffffffffffffffffffffffffff16815260200190815260200160002060000154116117bb576040517f08c379a0000000000000000000000000000000000000000000000000000000008152600401808060200182810382526021815260200180612ab86021913960400191505060405180910390fd5b600060038111156117c857fe5b600860008373ffffffffffffffffffffffffffffffffffffffff1673ffffffffffffffffffffffffffffffffffffffff168152602001908152602001600020600301600084815260200190815260200160002060010160009054906101000a900460ff16600381111561183757fe5b146118aa576040517f08c379a00000000000000000000000000000000000000000000000000000000081526004018080602001828103825260208152602001807f57726170706564534c503a2077726f6e6720726571756573742073746174757381525060200191505060405180910390fd5b6001600860008373ffffffffffffffffffffffffffffffffffffffff1673ffffffffffffffffffffffffffffffffffffffff168152602001908152602001600020600301600084815260200190815260200160002060010160006101000a81548160ff0219169083600381111561191d57fe5b02179055505050565b61192e611e2d565b73ffffffffffffffffffffffffffffffffffffffff16600560019054906101000a900473ffffffffffffffffffffffffffffffffffffffff1673ffffffffffffffffffffffffffffffffffffffff16146119f0576040517f08c379a00000000000000000000000000000000000000000000000000000000081526004018080602001828103825260208152602001807f4f776e61626c653a2063616c6c6572206973206e6f7420746865206f776e657281525060200191505060405180910390fd5b600160038111156119fd57fe5b600860008473ffffffffffffffffffffffffffffffffffffffff1673ffffffffffffffffffffffffffffffffffffffff168152602001908152602001600020600301600083815260200190815260200160002060010160009054906101000a900460ff166003811115611a6c57fe5b14611adf576040517f08c379a00000000000000000000000000000000000000000000000000000000081526004018080602001828103825260208152602001807f57726170706564534c503a2077726f6e6720726571756573742073746174757381525060200191505060405180910390fd5b6000600860008473ffffffffffffffffffffffffffffffffffffffff1673ffffffffffffffffffffffffffffffffffffffff1681526020019081526020016000206003016000838152602001908152602001600020600001549050611b448382612438565b6003600860008573ffffffffffffffffffffffffffffffffffffffff1673ffffffffffffffffffffffffffffffffffffffff168152602001908152602001600020600301600084815260200190815260200160002060010160006101000a81548160ff02191690836003811115611bb757fe5b02179055508273ffffffffffffffffffffffffffffffffffffffff167fabd9ba6631e1bad930f70bea8697388a2038c4196f0bcea5504dc3146e7a8ebe8383604051808381526020018281526020019250505060405180910390a2505050565b611c1f611e2d565b73ffffffffffffffffffffffffffffffffffffffff16600560019054906101000a900473ffffffffffffffffffffffffffffffffffffffff1673ffffffffffffffffffffffffffffffffffffffff1614611ce1576040517f08c379a00000000000000000000000000000000000000000000000000000000081526004018080602001828103825260208152602001807f4f776e61626c653a2063616c6c6572206973206e6f7420746865206f776e657281525060200191505060405180910390fd5b600073ffffffffffffffffffffffffffffffffffffffff168173ffffffffffffffffffffffffffffffffffffffff161415611d67576040517f08c379a0000000000000000000000000000000000000000000000000000000008152600401808060200182810382526026815260200180612a4a6026913960400191505060405180910390fd5b8073ffffffffffffffffffffffffffffffffffffffff16600560019054906101000a900473ffffffffffffffffffffffffffffffffffffffff1673ffffffffffffffffffffffffffffffffffffffff167f8be0079c531659141344cd1fd0a4f28419497f9722a3daafe3b4186f6b6457e060405160405180910390a380600560016101000a81548173ffffffffffffffffffffffffffffffffffffffff021916908373ffffffffffffffffffffffffffffffffffffffff16021790555050565b60075481565b600033905090565b600073ffffffffffffffffffffffffffffffffffffffff168373ffffffffffffffffffffffffffffffffffffffff161415611ebb576040517f08c379a0000000000000000000000000000000000000000000000000000000008152600401808060200182810382526024815260200180612b476024913960400191505060405180910390fd5b600073ffffffffffffffffffffffffffffffffffffffff168273ffffffffffffffffffffffffffffffffffffffff161415611f41576040517f08c379a0000000000000000000000000000000000000000000000000000000008152600401808060200182810382526022815260200180612a706022913960400191505060405180910390fd5b80600160008573ffffffffffffffffffffffffffffffffffffffff1673ffffffffffffffffffffffffffffffffffffffff16815260200190815260200160002060008473ffffffffffffffffffffffffffffffffffffffff1673ffffffffffffffffffffffffffffffffffffffff168152602001908152602001600020819055508173ffffffffffffffffffffffffffffffffffffffff168373ffffffffffffffffffffffffffffffffffffffff167f8c5be1e5ebec7d5bd14f71427d1e84f3dd0314c0f7b2291e5b200ac8c7c3b925836040518082815260200191505060405180910390a3505050565b3073ffffffffffffffffffffffffffffffffffffffff168373ffffffffffffffffffffffffffffffffffffffff16141580156120955750600073ffffffffffffffffffffffffffffffffffffffff168373ffffffffffffffffffffffffffffffffffffffff1614155b156120a4576120a3836125ff565b5b3073ffffffffffffffffffffffffffffffffffffffff168273ffffffffffffffffffffffffffffffffffffffff161415801561210d5750600073ffffffffffffffffffffffffffffffffffffffff168273ffffffffffffffffffffffffffffffffffffffff1614155b1561211c5761211b826125ff565b5b6121278383836126db565b505050565b60008383111582906121d9576040517f08c379a00000000000000000000000000000000000000000000000000000000081526004018080602001828103825283818151815260200191508051906020019080838360005b8381101561219e578082015181840152602081019050612183565b50505050905090810190601f1680156121cb5780820380516001836020036101000a031916815260200191505b509250505060405180910390fd5b5060008385039050809150509392505050565b60008082840190508381101561226a576040517f08c379a000000000000000000000000000000000000000000000000000000000815260040180806020018281038252601b8152602001807f536166654d6174683a206164646974696f6e206f766572666c6f77000000000081525060200191505060405180910390fd5b8091505092915050565b600073ffffffffffffffffffffffffffffffffffffffff168273ffffffffffffffffffffffffffffffffffffffff1614156122fa576040517f08c379a0000000000000000000000000000000000000000000000000000000008152600401808060200182810382526021815260200180612b016021913960400191505060405180910390fd5b6123068260008361299c565b61237181604051806060016040528060228152602001612a28602291396000808673ffffffffffffffffffffffffffffffffffffffff1673ffffffffffffffffffffffffffffffffffffffff1681526020019081526020016000205461212c9092919063ffffffff16565b6000808473ffffffffffffffffffffffffffffffffffffffff1673ffffffffffffffffffffffffffffffffffffffff168152602001908152602001600020819055506123c8816002546129a190919063ffffffff16565b600281905550600073ffffffffffffffffffffffffffffffffffffffff168273ffffffffffffffffffffffffffffffffffffffff167fddf252ad1be2c89b69c2b068fc378daa952ba7f163c4a11628f55a4df523b3ef836040518082815260200191505060405180910390a35050565b600073ffffffffffffffffffffffffffffffffffffffff168273ffffffffffffffffffffffffffffffffffffffff1614156124db576040517f08c379a000000000000000000000000000000000000000000000000000000000815260040180806020018281038252601f8152602001807f45524332303a206d696e7420746f20746865207a65726f20616464726573730081525060200191505060405180910390fd5b6124e76000838361299c565b6124fc816002546121ec90919063ffffffff16565b600281905550612553816000808573ffffffffffffffffffffffffffffffffffffffff1673ffffffffffffffffffffffffffffffffffffffff168152602001908152602001600020546121ec90919063ffffffff16565b6000808473ffffffffffffffffffffffffffffffffffffffff1673ffffffffffffffffffffffffffffffffffffffff168152602001908152602001600020819055508173ffffffffffffffffffffffffffffffffffffffff16600073ffffffffffffffffffffffffffffffffffffffff167fddf252ad1be2c89b69c2b068fc378daa952ba7f163c4a11628f55a4df523b3ef836040518082815260200191505060405180910390a35050565b6000600860008373ffffffffffffffffffffffffffffffffffffffff1673ffffffffffffffffffffffffffffffffffffffff1681526020019081526020016000209050600061264d83610fdd565b90506000811180156126625750816002015442115b156126cd57600754826002015442030282600101819055506000670de0b6b3a764000083600101548161269157fe5b04905060008111156126cb576126b184306126ac84866129eb565b6126db565b670de0b6b3a7640000810283600101540383600101819055505b505b428260020181905550505050565b600073ffffffffffffffffffffffffffffffffffffffff168373ffffffffffffffffffffffffffffffffffffffff161415612761576040517f08c379a0000000000000000000000000000000000000000000000000000000008152600401808060200182810382526025815260200180612b226025913960400191505060405180910390fd5b600073ffffffffffffffffffffffffffffffffffffffff168273ffffffffffffffffffffffffffffffffffffffff1614156127e7576040517f08c379a0000000000000000000000000000000000000000000000000000000008152600401808060200182810382526023815260200180612a056023913960400191505060405180910390fd5b6127f283838361299c565b61285d81604051806060016040528060268152602001612a92602691396000808773ffffffffffffffffffffffffffffffffffffffff1673ffffffffffffffffffffffffffffffffffffffff1681526020019081526020016000205461212c9092919063ffffffff16565b6000808573ffffffffffffffffffffffffffffffffffffffff1673ffffffffffffffffffffffffffffffffffffffff168152602001908152602001600020819055506128f0816000808573ffffffffffffffffffffffffffffffffffffffff1673ffffffffffffffffffffffffffffffffffffffff168152602001908152602001600020546121ec90919063ffffffff16565b6000808473ffffffffffffffffffffffffffffffffffffffff1673ffffffffffffffffffffffffffffffffffffffff168152602001908152602001600020819055508173ffffffffffffffffffffffffffffffffffffffff168373ffffffffffffffffffffffffffffffffffffffff167fddf252ad1be2c89b69c2b068fc378daa952ba7f163c4a11628f55a4df523b3ef836040518082815260200191505060405180910390a3505050565b505050565b60006129e383836040518060400160405280601e81526020017f536166654d6174683a207375627472616374696f6e206f766572666c6f77000081525061212c565b905092915050565b60008183106129fa57816129fc565b825b90509291505056fe45524332303a207472616e7366657220746f20746865207a65726f206164647265737345524332303a206275726e20616d6f756e7420657863656564732062616c616e63654f776e61626c653a206e6577206f776e657220697320746865207a65726f206164647265737345524332303a20617070726f766520746f20746865207a65726f206164647265737345524332303a207472616e7366657220616d6f756e7420657863656564732062616c616e636557726170706564534c503a207265717565737420646f65736e277420657869737445524332303a207472616e7366657220616d6f756e74206578636565647320616c6c6f77616e636545524332303a206275726e2066726f6d20746865207a65726f206164647265737345524332303a207472616e736665722066726f6d20746865207a65726f206164647265737345524332303a20617070726f76652066726f6d20746865207a65726f206164647265737345524332303a2064656372656173656420616c6c6f77616e63652062656c6f77207a65726fa264697066735822122023197ba93fc996619fc57a90c1e81fdf81b07c463e56be1321d3699e3051156864736f6c634300070000334f776e61626c653a206e6577206f776e657220697320746865207a65726f2061646472657373a2646970667358221220c3a79b81e418b24be05533a233e361e8fdaef5eeac2fc68ea16886c513cd173c64736f6c63430007000033",
  "immutableReferences": {},
  "source": "pragma solidity 0.7.0;\n\nimport \"./WrappedSLP.sol\";\nimport \"@openzeppelin/contracts/access/Ownable.sol\";\n\n/// @title Factory - Allow to deploy arbitrary WSLP tokens.\ncontract Factory is Ownable {\n    mapping(string => address) public getErc20; // slp-wslp keypairs\n    address[] public allTokens; // all wslp addressses\n    string[] public allSlp; // all slp addresses\n\n    event WslpCreated(string indexed _slp, address indexed _erc20);\n\n    /// @dev Read the amount of supported WSLP.\n    /// @return Number of supported WSLP.\n    function allPairsLength() external view returns (uint256) {\n        return allSlp.length;\n    }\n\n    /// @dev Deploy new ERC20 that represents wrapped SLP.\n    /// @param _slp Address of the SLP token in BCH.\n    /// @param _symbol Token's symbol.\n    /// @param _name Token's name.\n    /// @param _decimals Number of decimals.\n    /// @return _erc20 New WSLP address.\n    function createWslp(\n        string memory _slp,\n        string memory _symbol,\n        string memory _name,\n        uint8 _decimals\n    ) external returns (address _erc20) {\n        require(getErc20[_slp] == address(0), \"Factory: erc20 exist\");\n        WrappedSLP wrappedSLP = new WrappedSLP(_slp, _symbol, _name, _decimals);\n        wrappedSLP.transferOwnership(owner());\n        _erc20 = address(wrappedSLP);\n        getErc20[_slp] = _erc20;\n        allTokens.push(_erc20);\n        allSlp.push(_slp);\n        emit WslpCreated(_slp, _erc20);\n    }\n}\n",
  "sourcePath": "/Users/kstasi/Documents/side/slp-ship-contracts/contracts/Factory.sol",
  "compiler": {
    "name": "solc",
    "version": "0.7.0+commit.9e61f92b.Emscripten.clang"
  },
  "schemaVersion": "3.3.3",
  "updatedAt": "2021-01-16T20:11:21.588Z",
  "networkType": "ethereum",
  "devdoc": {
    "kind": "dev",
    "methods": {
      "allPairsLength()": {
        "details": "Read the amount of supported WSLP.",
        "returns": {
          "_0": "Number of supported WSLP."
        }
      },
      "createWslp(string,string,string,uint8)": {
        "details": "Deploy new ERC20 that represents wrapped SLP.",
        "params": {
          "_decimals": "Number of decimals.",
          "_name": "Token's name.",
          "_slp": "Address of the SLP token in BCH.",
          "_symbol": "Token's symbol."
        },
        "returns": {
          "_erc20": "New WSLP address."
        }
      },
      "owner()": {
        "details": "Returns the address of the current owner."
      },
      "renounceOwnership()": {
        "details": "Leaves the contract without owner. It will not be possible to call `onlyOwner` functions anymore. Can only be called by the current owner. NOTE: Renouncing ownership will leave the contract without an owner, thereby removing any functionality that is only available to the owner."
      },
      "transferOwnership(address)": {
        "details": "Transfers ownership of the contract to a new account (`newOwner`). Can only be called by the current owner."
      }
    },
    "title": "Factory - Allow to deploy arbitrary WSLP tokens.",
    "version": 1
  },
  "userdoc": {
    "kind": "user",
    "methods": {},
    "version": 1
  }
}