{
  "contractName": "WrappedSLP",
  "abi": [
    {
      "inputs": [
        {
          "internalType": "string",
          "name": "_slp",
          "type": "string"
        },
        {
          "internalType": "string",
          "name": "_symbol",
          "type": "string"
        },
        {
          "internalType": "string",
          "name": "_name",
          "type": "string"
        },
        {
          "internalType": "uint8",
          "name": "_decimals",
          "type": "uint8"
        }
      ],
      "stateMutability": "nonpayable",
      "type": "constructor"
    },
    {
      "anonymous": false,
      "inputs": [
        {
          "indexed": true,
          "internalType": "address",
          "name": "owner",
          "type": "address"
        },
        {
          "indexed": true,
          "internalType": "address",
          "name": "spender",
          "type": "address"
        },
        {
          "indexed": false,
          "internalType": "uint256",
          "name": "value",
          "type": "uint256"
        }
      ],
      "name": "Approval",
      "type": "event"
    },
    {
      "anonymous": false,
      "inputs": [
        {
          "indexed": false,
          "internalType": "uint256",
          "name": "_amount",
          "type": "uint256"
        }
      ],
      "name": "BurnFees",
      "type": "event"
    },
    {
      "anonymous": false,
      "inputs": [
        {
          "indexed": true,
          "internalType": "address",
          "name": "previousOwner",
          "type": "address"
        },
        {
          "indexed": true,
          "internalType": "address",
          "name": "newOwner",
          "type": "address"
        }
      ],
      "name": "OwnershipTransferred",
      "type": "event"
    },
    {
      "anonymous": false,
      "inputs": [
        {
          "indexed": true,
          "internalType": "address",
          "name": "_account",
          "type": "address"
        },
        {
          "indexed": false,
          "internalType": "uint256",
          "name": "_amount",
          "type": "uint256"
        },
        {
          "indexed": true,
          "internalType": "string",
          "name": "_slpTrx",
          "type": "string"
        }
      ],
      "name": "SlpLocked",
      "type": "event"
    },
    {
      "anonymous": false,
      "inputs": [
        {
          "indexed": true,
          "internalType": "address",
          "name": "_account",
          "type": "address"
        },
        {
          "indexed": false,
          "internalType": "uint256",
          "name": "_id",
          "type": "uint256"
        },
        {
          "indexed": false,
          "internalType": "uint256",
          "name": "_amount",
          "type": "uint256"
        }
      ],
      "name": "SlpLockedBack",
      "type": "event"
    },
    {
      "anonymous": false,
      "inputs": [
        {
          "indexed": true,
          "internalType": "address",
          "name": "_account",
          "type": "address"
        },
        {
          "indexed": false,
          "internalType": "uint256",
          "name": "_amount",
          "type": "uint256"
        },
        {
          "indexed": true,
          "internalType": "string",
          "name": "_slpAddr",
          "type": "string"
        }
      ],
      "name": "SlpUnlockRequested",
      "type": "event"
    },
    {
      "anonymous": false,
      "inputs": [
        {
          "indexed": true,
          "internalType": "address",
          "name": "from",
          "type": "address"
        },
        {
          "indexed": true,
          "internalType": "address",
          "name": "to",
          "type": "address"
        },
        {
          "indexed": false,
          "internalType": "uint256",
          "name": "value",
          "type": "uint256"
        }
      ],
      "name": "Transfer",
      "type": "event"
    },
    {
      "inputs": [
        {
          "internalType": "address",
          "name": "owner",
          "type": "address"
        },
        {
          "internalType": "address",
          "name": "spender",
          "type": "address"
        }
      ],
      "name": "allowance",
      "outputs": [
        {
          "internalType": "uint256",
          "name": "",
          "type": "uint256"
        }
      ],
      "stateMutability": "view",
      "type": "function",
      "constant": true
    },
    {
      "inputs": [
        {
          "internalType": "address",
          "name": "spender",
          "type": "address"
        },
        {
          "internalType": "uint256",
          "name": "amount",
          "type": "uint256"
        }
      ],
      "name": "approve",
      "outputs": [
        {
          "internalType": "bool",
          "name": "",
          "type": "bool"
        }
      ],
      "stateMutability": "nonpayable",
      "type": "function"
    },
    {
      "inputs": [
        {
          "internalType": "address",
          "name": "account",
          "type": "address"
        }
      ],
      "name": "balanceOf",
      "outputs": [
        {
          "internalType": "uint256",
          "name": "",
          "type": "uint256"
        }
      ],
      "stateMutability": "view",
      "type": "function",
      "constant": true
    },
    {
      "inputs": [],
      "name": "chargePerSecRate",
      "outputs": [
        {
          "internalType": "uint256",
          "name": "",
          "type": "uint256"
        }
      ],
      "stateMutability": "view",
      "type": "function",
      "constant": true
    },
    {
      "inputs": [],
      "name": "decimals",
      "outputs": [
        {
          "internalType": "uint8",
          "name": "",
          "type": "uint8"
        }
      ],
      "stateMutability": "view",
      "type": "function",
      "constant": true
    },
    {
      "inputs": [
        {
          "internalType": "address",
          "name": "spender",
          "type": "address"
        },
        {
          "internalType": "uint256",
          "name": "subtractedValue",
          "type": "uint256"
        }
      ],
      "name": "decreaseAllowance",
      "outputs": [
        {
          "internalType": "bool",
          "name": "",
          "type": "bool"
        }
      ],
      "stateMutability": "nonpayable",
      "type": "function"
    },
    {
      "inputs": [
        {
          "internalType": "address",
          "name": "spender",
          "type": "address"
        },
        {
          "internalType": "uint256",
          "name": "addedValue",
          "type": "uint256"
        }
      ],
      "name": "increaseAllowance",
      "outputs": [
        {
          "internalType": "bool",
          "name": "",
          "type": "bool"
        }
      ],
      "stateMutability": "nonpayable",
      "type": "function"
    },
    {
      "inputs": [],
      "name": "name",
      "outputs": [
        {
          "internalType": "string",
          "name": "",
          "type": "string"
        }
      ],
      "stateMutability": "view",
      "type": "function",
      "constant": true
    },
    {
      "inputs": [],
      "name": "owner",
      "outputs": [
        {
          "internalType": "address",
          "name": "",
          "type": "address"
        }
      ],
      "stateMutability": "view",
      "type": "function",
      "constant": true
    },
    {
      "inputs": [],
      "name": "renounceOwnership",
      "outputs": [],
      "stateMutability": "nonpayable",
      "type": "function"
    },
    {
      "inputs": [],
      "name": "slpAddress",
      "outputs": [
        {
          "internalType": "string",
          "name": "",
          "type": "string"
        }
      ],
      "stateMutability": "view",
      "type": "function",
      "constant": true
    },
    {
      "inputs": [],
      "name": "symbol",
      "outputs": [
        {
          "internalType": "string",
          "name": "",
          "type": "string"
        }
      ],
      "stateMutability": "view",
      "type": "function",
      "constant": true
    },
    {
      "inputs": [],
      "name": "totalSupply",
      "outputs": [
        {
          "internalType": "uint256",
          "name": "",
          "type": "uint256"
        }
      ],
      "stateMutability": "view",
      "type": "function",
      "constant": true
    },
    {
      "inputs": [
        {
          "internalType": "address",
          "name": "recipient",
          "type": "address"
        },
        {
          "internalType": "uint256",
          "name": "amount",
          "type": "uint256"
        }
      ],
      "name": "transfer",
      "outputs": [
        {
          "internalType": "bool",
          "name": "",
          "type": "bool"
        }
      ],
      "stateMutability": "nonpayable",
      "type": "function"
    },
    {
      "inputs": [
        {
          "internalType": "address",
          "name": "sender",
          "type": "address"
        },
        {
          "internalType": "address",
          "name": "recipient",
          "type": "address"
        },
        {
          "internalType": "uint256",
          "name": "amount",
          "type": "uint256"
        }
      ],
      "name": "transferFrom",
      "outputs": [
        {
          "internalType": "bool",
          "name": "",
          "type": "bool"
        }
      ],
      "stateMutability": "nonpayable",
      "type": "function"
    },
    {
      "inputs": [
        {
          "internalType": "address",
          "name": "newOwner",
          "type": "address"
        }
      ],
      "name": "transferOwnership",
      "outputs": [],
      "stateMutability": "nonpayable",
      "type": "function"
    },
    {
      "inputs": [
        {
          "internalType": "address",
          "name": "",
          "type": "address"
        }
      ],
      "name": "users",
      "outputs": [
        {
          "internalType": "uint256",
          "name": "head",
          "type": "uint256"
        },
        {
          "internalType": "uint256",
          "name": "loss",
          "type": "uint256"
        },
        {
          "internalType": "uint256",
          "name": "lastUpdate",
          "type": "uint256"
        }
      ],
      "stateMutability": "view",
      "type": "function",
      "constant": true
    },
    {
      "inputs": [
        {
          "internalType": "address",
          "name": "_account",
          "type": "address"
        },
        {
          "internalType": "uint256",
          "name": "_amount",
          "type": "uint256"
        },
        {
          "internalType": "string",
          "name": "_slpTrx",
          "type": "string"
        }
      ],
      "name": "deposit",
      "outputs": [],
      "stateMutability": "nonpayable",
      "type": "function"
    },
    {
      "inputs": [
        {
          "internalType": "uint256",
          "name": "_amount",
          "type": "uint256"
        },
        {
          "internalType": "string",
          "name": "_slpAddr",
          "type": "string"
        }
      ],
      "name": "withdraw",
      "outputs": [],
      "stateMutability": "nonpayable",
      "type": "function"
    },
    {
      "inputs": [
        {
          "internalType": "uint256",
          "name": "_id",
          "type": "uint256"
        }
      ],
      "name": "requestCancel",
      "outputs": [],
      "stateMutability": "nonpayable",
      "type": "function"
    },
    {
      "inputs": [
        {
          "internalType": "address",
          "name": "_account",
          "type": "address"
        },
        {
          "internalType": "uint256",
          "name": "_id",
          "type": "uint256"
        }
      ],
      "name": "execCancel",
      "outputs": [],
      "stateMutability": "nonpayable",
      "type": "function"
    },
    {
      "inputs": [
        {
          "internalType": "address",
          "name": "_account",
          "type": "address"
        },
        {
          "internalType": "uint256",
          "name": "_id",
          "type": "uint256"
        }
      ],
      "name": "rejectCancel",
      "outputs": [],
      "stateMutability": "nonpayable",
      "type": "function"
    },
    {
      "inputs": [],
      "name": "burnFees",
      "outputs": [],
      "stateMutability": "nonpayable",
      "type": "function"
    }
  ],
  "bytecode": "0x60806040526312e337ee6007553480156200001957600080fd5b506040516200305f3803806200305f833981810160405260808110156200003f57600080fd5b81019080805160405193929190846401000000008211156200006057600080fd5b838201915060208201858111156200007757600080fd5b82518660018202830111640100000000821117156200009557600080fd5b8083526020830192505050908051906020019080838360005b83811015620000cb578082015181840152602081019050620000ae565b50505050905090810190601f168015620000f95780820380516001836020036101000a031916815260200191505b50604052602001805160405193929190846401000000008211156200011d57600080fd5b838201915060208201858111156200013457600080fd5b82518660018202830111640100000000821117156200015257600080fd5b8083526020830192505050908051906020019080838360005b83811015620001885780820151818401526020810190506200016b565b50505050905090810190601f168015620001b65780820380516001836020036101000a031916815260200191505b5060405260200180516040519392919084640100000000821115620001da57600080fd5b83820191506020820185811115620001f157600080fd5b82518660018202830111640100000000821117156200020f57600080fd5b8083526020830192505050908051906020019080838360005b838110156200024557808201518184015260208101905062000228565b50505050905090810190601f168015620002735780820380516001836020036101000a031916815260200191505b506040526020018051906020019092919050505081838160039080519060200190620002a1929190620003e4565b508060049080519060200190620002ba929190620003e4565b506012600560006101000a81548160ff021916908360ff16021790555050506000620002eb620003be60201b60201c565b905080600560016101000a81548173ffffffffffffffffffffffffffffffffffffffff021916908373ffffffffffffffffffffffffffffffffffffffff1602179055508073ffffffffffffffffffffffffffffffffffffffff16600073ffffffffffffffffffffffffffffffffffffffff167f8be0079c531659141344cd1fd0a4f28419497f9722a3daafe3b4186f6b6457e060405160405180910390a3508360069080519060200190620003a2929190620003e4565b50620003b481620003c660201b60201c565b505050506200048a565b600033905090565b80600560006101000a81548160ff021916908360ff16021790555050565b828054600181600116156101000203166002900490600052602060002090601f016020900481019282601f106200042757805160ff191683800117855562000458565b8280016001018555821562000458579182015b82811115620004575782518255916020019190600101906200043a565b5b5090506200046791906200046b565b5090565b5b80821115620004865760008160009055506001016200046c565b5090565b612bc5806200049a6000396000f3fe608060405234801561001057600080fd5b506004361061014d5760003560e01c80638da5cb5b116100c3578063dc048cf21161007c578063dc048cf214610767578063dd62ed3e1461082c578063e683a2d4146108a4578063e86374f0146108d2578063f2fde38b14610920578063fc074e54146109645761014d565b80638da5cb5b1461049d57806395d89b41146104d1578063a457c2d714610554578063a87430ba146105b8578063a9059cbb1461061e578063bfe07da6146106825761014d565b8063313ce56711610115578063313ce56714610329578063395093511461034a5780633ebf3338146103ae57806340f6ac311461043157806370a082311461043b578063715018a6146104935761014d565b806306fdde0314610152578063095ea7b3146101d5578063170ba3cc1461023957806318160ddd1461028757806323b872dd146102a5575b600080fd5b61015a610982565b6040518080602001828103825283818151815260200191508051906020019080838360005b8381101561019a57808201518184015260208101905061017f565b50505050905090810190601f1680156101c75780820380516001836020036101000a031916815260200191505b509250505060405180910390f35b610221600480360360408110156101eb57600080fd5b81019080803573ffffffffffffffffffffffffffffffffffffffff16906020019092919080359060200190929190505050610a24565b60405180821515815260200191505060405180910390f35b6102856004803603604081101561024f57600080fd5b81019080803573ffffffffffffffffffffffffffffffffffffffff16906020019092919080359060200190929190505050610a42565b005b61028f610c77565b6040518082815260200191505060405180910390f35b610311600480360360608110156102bb57600080fd5b81019080803573ffffffffffffffffffffffffffffffffffffffff169060200190929190803573ffffffffffffffffffffffffffffffffffffffff16906020019092919080359060200190929190505050610c81565b60405180821515815260200191505060405180910390f35b610331610d5a565b604051808260ff16815260200191505060405180910390f35b6103966004803603604081101561036057600080fd5b81019080803573ffffffffffffffffffffffffffffffffffffffff16906020019092919080359060200190929190505050610d71565b60405180821515815260200191505060405180910390f35b6103b6610e24565b6040518080602001828103825283818151815260200191508051906020019080838360005b838110156103f65780820151818401526020810190506103db565b50505050905090810190601f1680156104235780820380516001836020036101000a031916815260200191505b509250505060405180910390f35b610439610ec2565b005b61047d6004803603602081101561045157600080fd5b81019080803573ffffffffffffffffffffffffffffffffffffffff169060200190929190505050610fdd565b6040518082815260200191505060405180910390f35b61049b611025565b005b6104a56111b0565b604051808273ffffffffffffffffffffffffffffffffffffffff16815260200191505060405180910390f35b6104d96111da565b6040518080602001828103825283818151815260200191508051906020019080838360005b838110156105195780820151818401526020810190506104fe565b50505050905090810190601f1680156105465780820380516001836020036101000a031916815260200191505b509250505060405180910390f35b6105a06004803603604081101561056a57600080fd5b81019080803573ffffffffffffffffffffffffffffffffffffffff1690602001909291908035906020019092919050505061127c565b60405180821515815260200191505060405180910390f35b6105fa600480360360208110156105ce57600080fd5b81019080803573ffffffffffffffffffffffffffffffffffffffff169060200190929190505050611349565b60405180848152602001838152602001828152602001935050505060405180910390f35b61066a6004803603604081101561063457600080fd5b81019080803573ffffffffffffffffffffffffffffffffffffffff16906020019092919080359060200190929190505050611373565b60405180821515815260200191505060405180910390f35b6107656004803603606081101561069857600080fd5b81019080803573ffffffffffffffffffffffffffffffffffffffff16906020019092919080359060200190929190803590602001906401000000008111156106df57600080fd5b8201836020820111156106f157600080fd5b8035906020019184600183028401116401000000008311171561071357600080fd5b91908080601f016020809104026020016040519081016040528093929190818152602001838380828437600081840152601f19601f820116905080830192505050505050509192919290505050611391565b005b61082a6004803603604081101561077d57600080fd5b8101908080359060200190929190803590602001906401000000008111156107a457600080fd5b8201836020820111156107b657600080fd5b803590602001918460018302840111640100000000831117156107d857600080fd5b91908080601f016020809104026020016040519081016040528093929190818152602001838380828437600081840152601f19601f820116905080830192505050505050509192919290505050611519565b005b61088e6004803603604081101561084257600080fd5b81019080803573ffffffffffffffffffffffffffffffffffffffff169060200190929190803573ffffffffffffffffffffffffffffffffffffffff16906020019092919050505061168e565b6040518082815260200191505060405180910390f35b6108d0600480360360208110156108ba57600080fd5b8101908080359060200190929190505050611715565b005b61091e600480360360408110156108e857600080fd5b81019080803573ffffffffffffffffffffffffffffffffffffffff16906020019092919080359060200190929190505050611926565b005b6109626004803603602081101561093657600080fd5b81019080803573ffffffffffffffffffffffffffffffffffffffff169060200190929190505050611c17565b005b61096c611e27565b6040518082815260200191505060405180910390f35b606060038054600181600116156101000203166002900480601f016020809104026020016040519081016040528092919081815260200182805460018160011615610100020316600290048015610a1a5780601f106109ef57610100808354040283529160200191610a1a565b820191906000526020600020905b8154815290600101906020018083116109fd57829003601f168201915b5050505050905090565b6000610a38610a31611e2d565b8484611e35565b6001905092915050565b610a4a611e2d565b73ffffffffffffffffffffffffffffffffffffffff16600560019054906101000a900473ffffffffffffffffffffffffffffffffffffffff1673ffffffffffffffffffffffffffffffffffffffff1614610b0c576040517f08c379a00000000000000000000000000000000000000000000000000000000081526004018080602001828103825260208152602001807f4f776e61626c653a2063616c6c6572206973206e6f7420746865206f776e657281525060200191505060405180910390fd5b60016003811115610b1957fe5b600860008473ffffffffffffffffffffffffffffffffffffffff1673ffffffffffffffffffffffffffffffffffffffff168152602001908152602001600020600301600083815260200190815260200160002060010160009054906101000a900460ff166003811115610b8857fe5b14610bfb576040517f08c379a00000000000000000000000000000000000000000000000000000000081526004018080602001828103825260208152602001807f57726170706564534c503a2077726f6e6720726571756573742073746174757381525060200191505060405180910390fd5b6002600860008473ffffffffffffffffffffffffffffffffffffffff1673ffffffffffffffffffffffffffffffffffffffff168152602001908152602001600020600301600083815260200190815260200160002060010160006101000a81548160ff02191690836003811115610c6e57fe5b02179055505050565b6000600254905090565b6000610c8e84848461202c565b610d4f84610c9a611e2d565b610d4a85604051806060016040528060288152602001612ad960289139600160008b73ffffffffffffffffffffffffffffffffffffffff1673ffffffffffffffffffffffffffffffffffffffff1681526020019081526020016000206000610d00611e2d565b73ffffffffffffffffffffffffffffffffffffffff1673ffffffffffffffffffffffffffffffffffffffff1681526020019081526020016000205461212c9092919063ffffffff16565b611e35565b600190509392505050565b6000600560009054906101000a900460ff16905090565b6000610e1a610d7e611e2d565b84610e158560016000610d8f611e2d565b73ffffffffffffffffffffffffffffffffffffffff1673ffffffffffffffffffffffffffffffffffffffff16815260200190815260200160002060008973ffffffffffffffffffffffffffffffffffffffff1673ffffffffffffffffffffffffffffffffffffffff168152602001908152602001600020546121ec90919063ffffffff16565b611e35565b6001905092915050565b60068054600181600116156101000203166002900480601f016020809104026020016040519081016040528092919081815260200182805460018160011615610100020316600290048015610eba5780601f10610e8f57610100808354040283529160200191610eba565b820191906000526020600020905b815481529060010190602001808311610e9d57829003601f168201915b505050505081565b610eca611e2d565b73ffffffffffffffffffffffffffffffffffffffff16600560019054906101000a900473ffffffffffffffffffffffffffffffffffffffff1673ffffffffffffffffffffffffffffffffffffffff1614610f8c576040517f08c379a00000000000000000000000000000000000000000000000000000000081526004018080602001828103825260208152602001807f4f776e61626c653a2063616c6c6572206973206e6f7420746865206f776e657281525060200191505060405180910390fd5b6000610f9730610fdd565b9050610fa33082612274565b7f9a9167e71c6d7a86507b4ab0611cdad6487558a4d9c54b310caba1d6a66d5837816040518082815260200191505060405180910390a150565b60008060008373ffffffffffffffffffffffffffffffffffffffff1673ffffffffffffffffffffffffffffffffffffffff168152602001908152602001600020549050919050565b61102d611e2d565b73ffffffffffffffffffffffffffffffffffffffff16600560019054906101000a900473ffffffffffffffffffffffffffffffffffffffff1673ffffffffffffffffffffffffffffffffffffffff16146110ef576040517f08c379a00000000000000000000000000000000000000000000000000000000081526004018080602001828103825260208152602001807f4f776e61626c653a2063616c6c6572206973206e6f7420746865206f776e657281525060200191505060405180910390fd5b600073ffffffffffffffffffffffffffffffffffffffff16600560019054906101000a900473ffffffffffffffffffffffffffffffffffffffff1673ffffffffffffffffffffffffffffffffffffffff167f8be0079c531659141344cd1fd0a4f28419497f9722a3daafe3b4186f6b6457e060405160405180910390a36000600560016101000a81548173ffffffffffffffffffffffffffffffffffffffff021916908373ffffffffffffffffffffffffffffffffffffffff160217905550565b6000600560019054906101000a900473ffffffffffffffffffffffffffffffffffffffff16905090565b606060048054600181600116156101000203166002900480601f0160208091040260200160405190810160405280929190818152602001828054600181600116156101000203166002900480156112725780601f1061124757610100808354040283529160200191611272565b820191906000526020600020905b81548152906001019060200180831161125557829003601f168201915b5050505050905090565b600061133f611289611e2d565b8461133a85604051806060016040528060258152602001612b6b60259139600160006112b3611e2d565b73ffffffffffffffffffffffffffffffffffffffff1673ffffffffffffffffffffffffffffffffffffffff16815260200190815260200160002060008a73ffffffffffffffffffffffffffffffffffffffff1673ffffffffffffffffffffffffffffffffffffffff1681526020019081526020016000205461212c9092919063ffffffff16565b611e35565b6001905092915050565b60086020528060005260406000206000915090508060000154908060010154908060020154905083565b6000611387611380611e2d565b848461202c565b6001905092915050565b611399611e2d565b73ffffffffffffffffffffffffffffffffffffffff16600560019054906101000a900473ffffffffffffffffffffffffffffffffffffffff1673ffffffffffffffffffffffffffffffffffffffff161461145b576040517f08c379a00000000000000000000000000000000000000000000000000000000081526004018080602001828103825260208152602001807f4f776e61626c653a2063616c6c6572206973206e6f7420746865206f776e657281525060200191505060405180910390fd5b6114658383612438565b806040518082805190602001908083835b602083106114995780518252602082019150602081019050602083039250611476565b6001836020036101000a03801982511681845116808217855250505050505090500191505060405180910390208373ffffffffffffffffffffffffffffffffffffffff167f12d25b343f58fb56af4dd5734945b7fa42ac63d8c607b8a8040f26d8c1315a77846040518082815260200191505060405180910390a3505050565b6000611523611e2d565b905061152f8184612274565b82600860008373ffffffffffffffffffffffffffffffffffffffff1673ffffffffffffffffffffffffffffffffffffffff1681526020019081526020016000206003016000600860008573ffffffffffffffffffffffffffffffffffffffff1673ffffffffffffffffffffffffffffffffffffffff168152602001908152602001600020600001600081548092919060010191905055815260200190815260200160002060000181905550816040518082805190602001908083835b6020831061160e57805182526020820191506020810190506020830392506115eb565b6001836020036101000a03801982511681845116808217855250505050505090500191505060405180910390208173ffffffffffffffffffffffffffffffffffffffff167f910991089c08806054f4db6af9c19b214b33254f055366f331d834ba3a4fb6bb856040518082815260200191505060405180910390a3505050565b6000600160008473ffffffffffffffffffffffffffffffffffffffff1673ffffffffffffffffffffffffffffffffffffffff16815260200190815260200160002060008373ffffffffffffffffffffffffffffffffffffffff1673ffffffffffffffffffffffffffffffffffffffff16815260200190815260200160002054905092915050565b600061171f611e2d565b905081600860008373ffffffffffffffffffffffffffffffffffffffff1673ffffffffffffffffffffffffffffffffffffffff16815260200190815260200160002060000154116117bb576040517f08c379a0000000000000000000000000000000000000000000000000000000008152600401808060200182810382526021815260200180612ab86021913960400191505060405180910390fd5b600060038111156117c857fe5b600860008373ffffffffffffffffffffffffffffffffffffffff1673ffffffffffffffffffffffffffffffffffffffff168152602001908152602001600020600301600084815260200190815260200160002060010160009054906101000a900460ff16600381111561183757fe5b146118aa576040517f08c379a00000000000000000000000000000000000000000000000000000000081526004018080602001828103825260208152602001807f57726170706564534c503a2077726f6e6720726571756573742073746174757381525060200191505060405180910390fd5b6001600860008373ffffffffffffffffffffffffffffffffffffffff1673ffffffffffffffffffffffffffffffffffffffff168152602001908152602001600020600301600084815260200190815260200160002060010160006101000a81548160ff0219169083600381111561191d57fe5b02179055505050565b61192e611e2d565b73ffffffffffffffffffffffffffffffffffffffff16600560019054906101000a900473ffffffffffffffffffffffffffffffffffffffff1673ffffffffffffffffffffffffffffffffffffffff16146119f0576040517f08c379a00000000000000000000000000000000000000000000000000000000081526004018080602001828103825260208152602001807f4f776e61626c653a2063616c6c6572206973206e6f7420746865206f776e657281525060200191505060405180910390fd5b600160038111156119fd57fe5b600860008473ffffffffffffffffffffffffffffffffffffffff1673ffffffffffffffffffffffffffffffffffffffff168152602001908152602001600020600301600083815260200190815260200160002060010160009054906101000a900460ff166003811115611a6c57fe5b14611adf576040517f08c379a00000000000000000000000000000000000000000000000000000000081526004018080602001828103825260208152602001807f57726170706564534c503a2077726f6e6720726571756573742073746174757381525060200191505060405180910390fd5b6000600860008473ffffffffffffffffffffffffffffffffffffffff1673ffffffffffffffffffffffffffffffffffffffff1681526020019081526020016000206003016000838152602001908152602001600020600001549050611b448382612438565b6003600860008573ffffffffffffffffffffffffffffffffffffffff1673ffffffffffffffffffffffffffffffffffffffff168152602001908152602001600020600301600084815260200190815260200160002060010160006101000a81548160ff02191690836003811115611bb757fe5b02179055508273ffffffffffffffffffffffffffffffffffffffff167fabd9ba6631e1bad930f70bea8697388a2038c4196f0bcea5504dc3146e7a8ebe8383604051808381526020018281526020019250505060405180910390a2505050565b611c1f611e2d565b73ffffffffffffffffffffffffffffffffffffffff16600560019054906101000a900473ffffffffffffffffffffffffffffffffffffffff1673ffffffffffffffffffffffffffffffffffffffff1614611ce1576040517f08c379a00000000000000000000000000000000000000000000000000000000081526004018080602001828103825260208152602001807f4f776e61626c653a2063616c6c6572206973206e6f7420746865206f776e657281525060200191505060405180910390fd5b600073ffffffffffffffffffffffffffffffffffffffff168173ffffffffffffffffffffffffffffffffffffffff161415611d67576040517f08c379a0000000000000000000000000000000000000000000000000000000008152600401808060200182810382526026815260200180612a4a6026913960400191505060405180910390fd5b8073ffffffffffffffffffffffffffffffffffffffff16600560019054906101000a900473ffffffffffffffffffffffffffffffffffffffff1673ffffffffffffffffffffffffffffffffffffffff167f8be0079c531659141344cd1fd0a4f28419497f9722a3daafe3b4186f6b6457e060405160405180910390a380600560016101000a81548173ffffffffffffffffffffffffffffffffffffffff021916908373ffffffffffffffffffffffffffffffffffffffff16021790555050565b60075481565b600033905090565b600073ffffffffffffffffffffffffffffffffffffffff168373ffffffffffffffffffffffffffffffffffffffff161415611ebb576040517f08c379a0000000000000000000000000000000000000000000000000000000008152600401808060200182810382526024815260200180612b476024913960400191505060405180910390fd5b600073ffffffffffffffffffffffffffffffffffffffff168273ffffffffffffffffffffffffffffffffffffffff161415611f41576040517f08c379a0000000000000000000000000000000000000000000000000000000008152600401808060200182810382526022815260200180612a706022913960400191505060405180910390fd5b80600160008573ffffffffffffffffffffffffffffffffffffffff1673ffffffffffffffffffffffffffffffffffffffff16815260200190815260200160002060008473ffffffffffffffffffffffffffffffffffffffff1673ffffffffffffffffffffffffffffffffffffffff168152602001908152602001600020819055508173ffffffffffffffffffffffffffffffffffffffff168373ffffffffffffffffffffffffffffffffffffffff167f8c5be1e5ebec7d5bd14f71427d1e84f3dd0314c0f7b2291e5b200ac8c7c3b925836040518082815260200191505060405180910390a3505050565b3073ffffffffffffffffffffffffffffffffffffffff168373ffffffffffffffffffffffffffffffffffffffff16141580156120955750600073ffffffffffffffffffffffffffffffffffffffff168373ffffffffffffffffffffffffffffffffffffffff1614155b156120a4576120a3836125ff565b5b3073ffffffffffffffffffffffffffffffffffffffff168273ffffffffffffffffffffffffffffffffffffffff161415801561210d5750600073ffffffffffffffffffffffffffffffffffffffff168273ffffffffffffffffffffffffffffffffffffffff1614155b1561211c5761211b826125ff565b5b6121278383836126db565b505050565b60008383111582906121d9576040517f08c379a00000000000000000000000000000000000000000000000000000000081526004018080602001828103825283818151815260200191508051906020019080838360005b8381101561219e578082015181840152602081019050612183565b50505050905090810190601f1680156121cb5780820380516001836020036101000a031916815260200191505b509250505060405180910390fd5b5060008385039050809150509392505050565b60008082840190508381101561226a576040517f08c379a000000000000000000000000000000000000000000000000000000000815260040180806020018281038252601b8152602001807f536166654d6174683a206164646974696f6e206f766572666c6f77000000000081525060200191505060405180910390fd5b8091505092915050565b600073ffffffffffffffffffffffffffffffffffffffff168273ffffffffffffffffffffffffffffffffffffffff1614156122fa576040517f08c379a0000000000000000000000000000000000000000000000000000000008152600401808060200182810382526021815260200180612b016021913960400191505060405180910390fd5b6123068260008361299c565b61237181604051806060016040528060228152602001612a28602291396000808673ffffffffffffffffffffffffffffffffffffffff1673ffffffffffffffffffffffffffffffffffffffff1681526020019081526020016000205461212c9092919063ffffffff16565b6000808473ffffffffffffffffffffffffffffffffffffffff1673ffffffffffffffffffffffffffffffffffffffff168152602001908152602001600020819055506123c8816002546129a190919063ffffffff16565b600281905550600073ffffffffffffffffffffffffffffffffffffffff168273ffffffffffffffffffffffffffffffffffffffff167fddf252ad1be2c89b69c2b068fc378daa952ba7f163c4a11628f55a4df523b3ef836040518082815260200191505060405180910390a35050565b600073ffffffffffffffffffffffffffffffffffffffff168273ffffffffffffffffffffffffffffffffffffffff1614156124db576040517f08c379a000000000000000000000000000000000000000000000000000000000815260040180806020018281038252601f8152602001807f45524332303a206d696e7420746f20746865207a65726f20616464726573730081525060200191505060405180910390fd5b6124e76000838361299c565b6124fc816002546121ec90919063ffffffff16565b600281905550612553816000808573ffffffffffffffffffffffffffffffffffffffff1673ffffffffffffffffffffffffffffffffffffffff168152602001908152602001600020546121ec90919063ffffffff16565b6000808473ffffffffffffffffffffffffffffffffffffffff1673ffffffffffffffffffffffffffffffffffffffff168152602001908152602001600020819055508173ffffffffffffffffffffffffffffffffffffffff16600073ffffffffffffffffffffffffffffffffffffffff167fddf252ad1be2c89b69c2b068fc378daa952ba7f163c4a11628f55a4df523b3ef836040518082815260200191505060405180910390a35050565b6000600860008373ffffffffffffffffffffffffffffffffffffffff1673ffffffffffffffffffffffffffffffffffffffff1681526020019081526020016000209050600061264d83610fdd565b90506000811180156126625750816002015442115b156126cd57600754826002015442030282600101819055506000670de0b6b3a764000083600101548161269157fe5b04905060008111156126cb576126b184306126ac84866129eb565b6126db565b670de0b6b3a7640000810283600101540383600101819055505b505b428260020181905550505050565b600073ffffffffffffffffffffffffffffffffffffffff168373ffffffffffffffffffffffffffffffffffffffff161415612761576040517f08c379a0000000000000000000000000000000000000000000000000000000008152600401808060200182810382526025815260200180612b226025913960400191505060405180910390fd5b600073ffffffffffffffffffffffffffffffffffffffff168273ffffffffffffffffffffffffffffffffffffffff1614156127e7576040517f08c379a0000000000000000000000000000000000000000000000000000000008152600401808060200182810382526023815260200180612a056023913960400191505060405180910390fd5b6127f283838361299c565b61285d81604051806060016040528060268152602001612a92602691396000808773ffffffffffffffffffffffffffffffffffffffff1673ffffffffffffffffffffffffffffffffffffffff1681526020019081526020016000205461212c9092919063ffffffff16565b6000808573ffffffffffffffffffffffffffffffffffffffff1673ffffffffffffffffffffffffffffffffffffffff168152602001908152602001600020819055506128f0816000808573ffffffffffffffffffffffffffffffffffffffff1673ffffffffffffffffffffffffffffffffffffffff168152602001908152602001600020546121ec90919063ffffffff16565b6000808473ffffffffffffffffffffffffffffffffffffffff1673ffffffffffffffffffffffffffffffffffffffff168152602001908152602001600020819055508173ffffffffffffffffffffffffffffffffffffffff168373ffffffffffffffffffffffffffffffffffffffff167fddf252ad1be2c89b69c2b068fc378daa952ba7f163c4a11628f55a4df523b3ef836040518082815260200191505060405180910390a3505050565b505050565b60006129e383836040518060400160405280601e81526020017f536166654d6174683a207375627472616374696f6e206f766572666c6f77000081525061212c565b905092915050565b60008183106129fa57816129fc565b825b90509291505056fe45524332303a207472616e7366657220746f20746865207a65726f206164647265737345524332303a206275726e20616d6f756e7420657863656564732062616c616e63654f776e61626c653a206e6577206f776e657220697320746865207a65726f206164647265737345524332303a20617070726f766520746f20746865207a65726f206164647265737345524332303a207472616e7366657220616d6f756e7420657863656564732062616c616e636557726170706564534c503a207265717565737420646f65736e277420657869737445524332303a207472616e7366657220616d6f756e74206578636565647320616c6c6f77616e636545524332303a206275726e2066726f6d20746865207a65726f206164647265737345524332303a207472616e736665722066726f6d20746865207a65726f206164647265737345524332303a20617070726f76652066726f6d20746865207a65726f206164647265737345524332303a2064656372656173656420616c6c6f77616e63652062656c6f77207a65726fa264697066735822122023197ba93fc996619fc57a90c1e81fdf81b07c463e56be1321d3699e3051156864736f6c63430007000033",
  "immutableReferences": {},
  "source": "// SPDX-License-Identifier: MIT\npragma solidity 0.7.0;\n\nimport \"@openzeppelin/contracts/token/ERC20/ERC20.sol\";\nimport \"@openzeppelin/contracts/access/Ownable.sol\";\nimport \"@openzeppelin/contracts/math/Math.sol\";\n\n/// @title Wrapped SLP - Allows to SLP tokens to the Ethereum network.\ncontract WrappedSLP is ERC20, Ownable {\n    event SlpLocked(\n        address indexed _account,\n        uint256 _amount,\n        string indexed _slpTrx\n    );\n    event SlpLockedBack(address indexed _account, uint256 _id, uint256 _amount);\n    event BurnFees(uint256 _amount);\n    event SlpUnlockRequested(\n        address indexed _account,\n        uint256 _amount,\n        string indexed _slpAddr\n    );\n\n    enum Status {BURNED, REQUESTED, EXEC, CANCELED}\n\n    struct Withdraw {\n        uint256 amount; // amount of tokens claimed on BCH\n        Status status; // withdrawal status\n    }\n    struct User {\n        uint256 head; // last deposit index\n        uint256 loss; // amount of borrowe fee\n        uint256 lastUpdate; // las time fee was charged\n        mapping(uint256 => Withdraw) withdraws; // withdrawal requests\n    }\n\n    string public slpAddress; // address of the original SLP\n    uint256 public chargePerSecRate = 316880878; // holders fee, 1% per year\n    mapping(address => User) public users; // accounts info\n\n    /// @dev Contract constructor sets initial owner and grants the rights.\n    /// @param _slp Address of the original slp.\n    /// @param _name Token's name.\n    /// @param _symbol Token's symbol.\n    /// @param _decimals Number of decimals.\n    constructor(\n        string memory _slp,\n        string memory _symbol,\n        string memory _name,\n        uint8 _decimals\n    ) ERC20(_name, _symbol) Ownable() {\n        slpAddress = _slp;\n        _setupDecimals(_decimals);\n    }\n\n    /// @dev Mints new wrapped tokens to the address.\n    /// @param _account Tokens receiver.\n    /// @param _amount Asset's quatity.\n    /// @param _slpTrx Hash of the transaction where original SLP sent.\n    function deposit(\n        address _account,\n        uint256 _amount,\n        string memory _slpTrx\n    ) external onlyOwner {\n        _mint(_account, _amount);\n        emit SlpLocked(_account, _amount, _slpTrx);\n    }\n\n    /// @dev Burns wrapped tokens to request original SLP.\n    /// @param _amount Asset's quatity.\n    /// @param _slpAddr Address of the SLP receiver.\n    function withdraw(uint256 _amount, string memory _slpAddr) external {\n        address account = _msgSender();\n        _burn(account, _amount);\n        users[account].withdraws[users[account].head++].amount = _amount;\n        emit SlpUnlockRequested(account, _amount, _slpAddr);\n    }\n\n    /// @dev Requests canceling the original SLP token transfer.\n    /// @param _id Withdraw request id.\n    function requestCancel(uint256 _id) external {\n        address account = _msgSender();\n        require(users[account].head > _id, \"WrappedSLP: request doesn't exist\");\n        require(\n            users[account].withdraws[_id].status == Status.BURNED,\n            \"WrappedSLP: wrong request status\"\n        );\n        users[account].withdraws[_id].status = Status.REQUESTED;\n    }\n\n    /// @dev Returns wrapped SLP after canceling the original SLP unlock.\n    /// @param _account Address of the account that requested canceling.\n    /// @param _id Withdraw request id.\n    function execCancel(address _account, uint256 _id) external onlyOwner {\n        require(\n            users[_account].withdraws[_id].status == Status.REQUESTED,\n            \"WrappedSLP: wrong request status\"\n        );\n        uint256 amount = users[_account].withdraws[_id].amount;\n        _mint(_account, amount);\n        users[_account].withdraws[_id].status = Status.CANCELED;\n        emit SlpLockedBack(_account, _id, amount);\n    }\n\n    /// @dev Regects canceling the original SLP unlock.\n    /// @param _account Address of the account that requested canceling.\n    /// @param _id Withdraw request id.\n    function rejectCancel(address _account, uint256 _id) external onlyOwner {\n        require(\n            users[_account].withdraws[_id].status == Status.REQUESTED,\n            \"WrappedSLP: wrong request status\"\n        );\n        users[_account].withdraws[_id].status = Status.EXEC;\n    }\n\n    /// @dev Burns holder fees after the original SLP tokens burn or transfer to zero address.\n    function burnFees() external onlyOwner {\n        uint256 amount = balanceOf(address(this));\n        _burn(address(this), amount);\n        emit BurnFees(amount);\n    }\n\n    /// @dev Withdraw fee from the account.\n    /// @param _account Address of the account that holds tokens.\n    function _chargeHolderFee(address _account) internal {\n        User storage userInfo = users[_account];\n        uint256 balance = balanceOf(_account);\n        if (balance > 0 && block.timestamp > userInfo.lastUpdate) {\n            userInfo.loss =\n                (block.timestamp - userInfo.lastUpdate) *\n                chargePerSecRate;\n            uint256 payableLoss = userInfo.loss / 1e18;\n            if (payableLoss > 0) {\n                super._transfer(\n                    _account,\n                    address(this),\n                    Math.min(payableLoss, balance)\n                );\n                userInfo.loss = userInfo.loss - payableLoss * 1e18;\n            }\n        }\n        userInfo.lastUpdate = block.timestamp;\n    }\n\n    /// @dev Transfer assets between addresses.\n    /// @param _sender Address of the account that sends tokens.\n    /// @param _recipient Address of the account that receivers tokens.\n    /// @param _amount Amount of tokens to ne sent.\n    function _transfer(\n        address _sender,\n        address _recipient,\n        uint256 _amount\n    ) internal override {\n        if (_sender != address(this) && _sender != address(0))\n            _chargeHolderFee(_sender);\n        if (_recipient != address(this) && _recipient != address(0))\n            _chargeHolderFee(_recipient);\n        super._transfer(_sender, _recipient, _amount);\n    }\n}\n",
  "sourcePath": "/Users/kstasi/Documents/side/slp-ship-contracts/contracts/WrappedSLP.sol",
  "compiler": {
    "name": "solc",
    "version": "0.7.0+commit.9e61f92b.Emscripten.clang"
  },
  "schemaVersion": "3.3.3",
  "updatedAt": "2021-01-16T20:11:21.579Z",
  "networkType": "ethereum",
  "devdoc": {
    "kind": "dev",
    "methods": {
      "allowance(address,address)": {
        "details": "See {IERC20-allowance}."
      },
      "approve(address,uint256)": {
        "details": "See {IERC20-approve}. Requirements: - `spender` cannot be the zero address."
      },
      "balanceOf(address)": {
        "details": "See {IERC20-balanceOf}."
      },
      "burnFees()": {
        "details": "Burns holder fees after the original SLP tokens burn or transfer to zero address."
      },
      "constructor": {
        "details": "Contract constructor sets initial owner and grants the rights.",
        "params": {
          "_decimals": "Number of decimals.",
          "_name": "Token's name.",
          "_slp": "Address of the original slp.",
          "_symbol": "Token's symbol."
        }
      },
      "decimals()": {
        "details": "Returns the number of decimals used to get its user representation. For example, if `decimals` equals `2`, a balance of `505` tokens should be displayed to a user as `5,05` (`505 / 10 ** 2`). Tokens usually opt for a value of 18, imitating the relationship between Ether and Wei. This is the value {ERC20} uses, unless {_setupDecimals} is called. NOTE: This information is only used for _display_ purposes: it in no way affects any of the arithmetic of the contract, including {IERC20-balanceOf} and {IERC20-transfer}."
      },
      "decreaseAllowance(address,uint256)": {
        "details": "Atomically decreases the allowance granted to `spender` by the caller. This is an alternative to {approve} that can be used as a mitigation for problems described in {IERC20-approve}. Emits an {Approval} event indicating the updated allowance. Requirements: - `spender` cannot be the zero address. - `spender` must have allowance for the caller of at least `subtractedValue`."
      },
      "deposit(address,uint256,string)": {
        "details": "Mints new wrapped tokens to the address.",
        "params": {
          "_account": "Tokens receiver.",
          "_amount": "Asset's quatity.",
          "_slpTrx": "Hash of the transaction where original SLP sent."
        }
      },
      "execCancel(address,uint256)": {
        "details": "Returns wrapped SLP after canceling the original SLP unlock.",
        "params": {
          "_account": "Address of the account that requested canceling.",
          "_id": "Withdraw request id."
        }
      },
      "increaseAllowance(address,uint256)": {
        "details": "Atomically increases the allowance granted to `spender` by the caller. This is an alternative to {approve} that can be used as a mitigation for problems described in {IERC20-approve}. Emits an {Approval} event indicating the updated allowance. Requirements: - `spender` cannot be the zero address."
      },
      "name()": {
        "details": "Returns the name of the token."
      },
      "owner()": {
        "details": "Returns the address of the current owner."
      },
      "rejectCancel(address,uint256)": {
        "details": "Regects canceling the original SLP unlock.",
        "params": {
          "_account": "Address of the account that requested canceling.",
          "_id": "Withdraw request id."
        }
      },
      "renounceOwnership()": {
        "details": "Leaves the contract without owner. It will not be possible to call `onlyOwner` functions anymore. Can only be called by the current owner. NOTE: Renouncing ownership will leave the contract without an owner, thereby removing any functionality that is only available to the owner."
      },
      "requestCancel(uint256)": {
        "details": "Requests canceling the original SLP token transfer.",
        "params": {
          "_id": "Withdraw request id."
        }
      },
      "symbol()": {
        "details": "Returns the symbol of the token, usually a shorter version of the name."
      },
      "totalSupply()": {
        "details": "See {IERC20-totalSupply}."
      },
      "transfer(address,uint256)": {
        "details": "See {IERC20-transfer}. Requirements: - `recipient` cannot be the zero address. - the caller must have a balance of at least `amount`."
      },
      "transferFrom(address,address,uint256)": {
        "details": "See {IERC20-transferFrom}. Emits an {Approval} event indicating the updated allowance. This is not required by the EIP. See the note at the beginning of {ERC20}. Requirements: - `sender` and `recipient` cannot be the zero address. - `sender` must have a balance of at least `amount`. - the caller must have allowance for ``sender``'s tokens of at least `amount`."
      },
      "transferOwnership(address)": {
        "details": "Transfers ownership of the contract to a new account (`newOwner`). Can only be called by the current owner."
      },
      "withdraw(uint256,string)": {
        "details": "Burns wrapped tokens to request original SLP.",
        "params": {
          "_amount": "Asset's quatity.",
          "_slpAddr": "Address of the SLP receiver."
        }
      }
    },
    "title": "Wrapped SLP - Allows to SLP tokens to the Ethereum network.",
    "version": 1
  },
  "userdoc": {
    "kind": "user",
    "methods": {},
    "version": 1
  }
}